{
  "transactions": [
    {
      "hash": "0xc23825b1fd3399bac4f08b88e053a498285f848d48f5f395dcc936880620e151",
      "transactionType": "CALL",
      "contractName": "Resolver",
      "contractAddress": "0xf31352ede0b4673e101d4e77de119ab7dd5a7251",
      "function": "setTickerBatch(address[],bytes32[])",
      "arguments": [
        "[0x6B175474E89094C44Da98b954EedeAC495271d0F, 0xC02aaA39b223FE8D0A0e5C4F27eAD9083C756Cc2, 0xA0b86991c6218b36c1d19D4a2e9Eb0cE3606eB48, 0xdAC17F958D2ee523a2206206994597C13D831ec7, 0xBC4CA0EdA7647A8aB7C2061c2E118A18a936f13D, 0xC18360217D8F7Ab5e7c516566761Ea12Ce7F9D72, 0xae7ab96520DE3A18E5e111B5EaAb095312D7fE84, 0xcbB7C0000aB88B473b1f5aFd9ef808440eed33Bf, 0x2260FAC5E5542a773Aa44fBCfeDf7C193bc2C599, 0x514910771AF9Ca656af840dff83E8264EcF986CA, 0x7Fc66500c84A76Ad7e9c93437bFc5Ac33E2DDaE9, 0x1f9840a85d5aF5bf1D1762F925BDADdC4201F984, 0x95aD61b0a150d79219dCF64E1E6Cc01f0B64C4cE, 0x7D1AfA7B718fb893dB30A3aBc0Cfc608AaCfeBB0, 0xc00e94Cb662C3520282E6f5717214004A7f26888, 0x111111111117dC0aa78b770fA6A738034120C302, 0xc944E90C64B2c07662A292be6244BDf05Cda44a7, 0x0D8775F648430679A709E98d2b0Cb6250d2887EF, 0x5A98FcBEA516Cf06857215779Fd812CA3beF1B32]",
        "[0x9f08c71555a1be56230b2e2579fafe4777867e0a1b947f01073e934471de15c1, 0xbc66733b7ca4d12d33ae46b0875e3b042b7391ce3a863cd5d8495e3fe87fd521, 0x1773e1ddf200efb0fafc1e372028aa623f95d2de00ee1f4be9d606ee8c89d5fb, 0xca41b004d4133d516f2302a6a68d02d659739ecd39c702e354f6b4f4df7b8787, 0x0b63016ddcfc9063b4b255438ea5d45f78febfd0f55edade667caa6089efa167, 0x5cee339e13375638553bdf5a6e36ba80fb9f6a4f0783680884d92b558aa471da, 0x5ac9daa245a058cac61ec09d6a24bc15218454e818290fb859f9fb2b64c8b905, 0x49134015cc54975e6de0d79672b01d659b4a1652b10e9646a847d016b4369211, 0x59e50295208418569657dcdbf79b85731eff3be260696ead2b44b1c097916a6c, 0x90430203e2d9ce04f00738d355173358b054545ecb52218de9c6fb01cbd9aeaf, 0xe0a39fef8aa5887c76606e7a14a5db8dc6676191e4866b2a609a3aa003b18329, 0xde2d1a51640f78257713031680d1f306297d957426e912ab21317b9cc9495a41, 0x0df80b2bbbcfee806f649bbc88b7fdf3ac04c8a96eedf96e5dcff29c40a3b977, 0xa65ed32f397318bcfdf0c17ca307ba5f47706701e7dfb53fdfb61192cc105054, 0x914acc36c7ee2266623695b15cc39b8e1b160c2dd6c3ecdb133d01e5a875d222, 0xd9bf0c0ec020d1a26ba6698a24db3a538215d8fbf30588bddde694887c4cb55e, 0x73858a4c610ff258196f17d460d13e1bcff5124d17504593005eb171f3894b37, 0x732b197f660c2bac1f55008d279ea2aa09b5672c5d93a62f080582d372eaf047, 0xf13336b9b581bdcc47a41506bf151624946084c8ee08843d2ecdcca41edb6b12]"
      ],
      "transaction": {
        "from": "0x9906b794407bbe3c1ca9741fdb30dc2facc838de",
        "to": "0xf31352ede0b4673e101d4e77de119ab7dd5a7251",
        "gas": "0xdca8a",
        "value": "0x0",
        "input": "0x11982e49000000000000000000000000000000000000000000000000000000000000004000000000000000000000000000000000000000000000000000000000000002c000000000000000000000000000000000000000000000000000000000000000130000000000000000000000006b175474e89094c44da98b954eedeac495271d0f000000000000000000000000c02aaa39b223fe8d0a0e5c4f27ead9083c756cc2000000000000000000000000a0b86991c6218b36c1d19d4a2e9eb0ce3606eb48000000000000000000000000dac17f958d2ee523a2206206994597c13d831ec7000000000000000000000000bc4ca0eda7647a8ab7c2061c2e118a18a936f13d000000000000000000000000c18360217d8f7ab5e7c516566761ea12ce7f9d72000000000000000000000000ae7ab96520de3a18e5e111b5eaab095312d7fe84000000000000000000000000cbb7c0000ab88b473b1f5afd9ef808440eed33bf0000000000000000000000002260fac5e5542a773aa44fbcfedf7c193bc2c599000000000000000000000000514910771af9ca656af840dff83e8264ecf986ca0000000000000000000000007fc66500c84a76ad7e9c93437bfc5ac33e2ddae90000000000000000000000001f9840a85d5af5bf1d1762f925bdaddc4201f98400000000000000000000000095ad61b0a150d79219dcf64e1e6cc01f0b64c4ce0000000000000000000000007d1afa7b718fb893db30a3abc0cfc608aacfebb0000000000000000000000000c00e94cb662c3520282e6f5717214004a7f26888000000000000000000000000111111111117dc0aa78b770fa6a738034120c302000000000000000000000000c944e90c64b2c07662a292be6244bdf05cda44a70000000000000000000000000d8775f648430679a709e98d2b0cb6250d2887ef0000000000000000000000005a98fcbea516cf06857215779fd812ca3bef1b3200000000000000000000000000000000000000000000000000000000000000139f08c71555a1be56230b2e2579fafe4777867e0a1b947f01073e934471de15c1bc66733b7ca4d12d33ae46b0875e3b042b7391ce3a863cd5d8495e3fe87fd5211773e1ddf200efb0fafc1e372028aa623f95d2de00ee1f4be9d606ee8c89d5fbca41b004d4133d516f2302a6a68d02d659739ecd39c702e354f6b4f4df7b87870b63016ddcfc9063b4b255438ea5d45f78febfd0f55edade667caa6089efa1675cee339e13375638553bdf5a6e36ba80fb9f6a4f0783680884d92b558aa471da5ac9daa245a058cac61ec09d6a24bc15218454e818290fb859f9fb2b64c8b90549134015cc54975e6de0d79672b01d659b4a1652b10e9646a847d016b436921159e50295208418569657dcdbf79b85731eff3be260696ead2b44b1c097916a6c90430203e2d9ce04f00738d355173358b054545ecb52218de9c6fb01cbd9aeafe0a39fef8aa5887c76606e7a14a5db8dc6676191e4866b2a609a3aa003b18329de2d1a51640f78257713031680d1f306297d957426e912ab21317b9cc9495a410df80b2bbbcfee806f649bbc88b7fdf3ac04c8a96eedf96e5dcff29c40a3b977a65ed32f397318bcfdf0c17ca307ba5f47706701e7dfb53fdfb61192cc105054914acc36c7ee2266623695b15cc39b8e1b160c2dd6c3ecdb133d01e5a875d222d9bf0c0ec020d1a26ba6698a24db3a538215d8fbf30588bddde694887c4cb55e73858a4c610ff258196f17d460d13e1bcff5124d17504593005eb171f3894b37732b197f660c2bac1f55008d279ea2aa09b5672c5d93a62f080582d372eaf047f13336b9b581bdcc47a41506bf151624946084c8ee08843d2ecdcca41edb6b12",
        "nonce": "0xa",
        "chainId": "0x1"
      },
      "additionalContracts": [],
      "isFixedGasLimit": false
    }
  ],
  "receipts": [
    {
      "status": "0x1",
      "cumulativeGasUsed": "0xb1cbbe",
      "logs": [
        {
          "address": "0xf31352ede0b4673e101d4e77de119ab7dd5a7251",
          "topics": [
            "0xe3f27c5c6040730dd8dabe075a5ed5da28906cf33fefe23f89968529d505d268",
            "0x085f7bd8c460f5a4444a845d4649fd62608f746d1f6e3ac4407aa6a94c6c6e25",
            "0x0000000000000000000000006b175474e89094c44da98b954eedeac495271d0f"
          ],
          "data": "0x0000000000000000000000000000000000000000000000000000000000000014",
          "blockHash": "0x2249cb001ee7deee07e6c78dc8e6e553503c89a36300ae3347acc95f4f91cf2e",
          "blockNumber": "0x152d04d",
          "blockTimestamp": "0x67f175db",
          "transactionHash": "0xc23825b1fd3399bac4f08b88e053a498285f848d48f5f395dcc936880620e151",
          "transactionIndex": "0x63",
          "logIndex": "0x10e",
          "removed": false
        },
        {
          "address": "0xf31352ede0b4673e101d4e77de119ab7dd5a7251",
          "topics": [
            "0xe3f27c5c6040730dd8dabe075a5ed5da28906cf33fefe23f89968529d505d268",
            "0xd88805cfe3cefab82ef08a8f7bb941fa708d25b6856bcac3d097c32f11ffc889",
            "0x000000000000000000000000c02aaa39b223fe8d0a0e5c4f27ead9083c756cc2"
          ],
          "data": "0x0000000000000000000000000000000000000000000000000000000000000014",
          "blockHash": "0x2249cb001ee7deee07e6c78dc8e6e553503c89a36300ae3347acc95f4f91cf2e",
          "blockNumber": "0x152d04d",
          "blockTimestamp": "0x67f175db",
          "transactionHash": "0xc23825b1fd3399bac4f08b88e053a498285f848d48f5f395dcc936880620e151",
          "transactionIndex": "0x63",
          "logIndex": "0x10f",
          "removed": false
        },
        {
          "address": "0xf31352ede0b4673e101d4e77de119ab7dd5a7251",
          "topics": [
            "0xe3f27c5c6040730dd8dabe075a5ed5da28906cf33fefe23f89968529d505d268",
            "0xbddef8cc5940ff8b8690a7afb89a4857778d0476639fa2fbc863612b11ca3080",
            "0x000000000000000000000000a0b86991c6218b36c1d19d4a2e9eb0ce3606eb48"
          ],
          "data": "0x0000000000000000000000000000000000000000000000000000000000000014",
          "blockHash": "0x2249cb001ee7deee07e6c78dc8e6e553503c89a36300ae3347acc95f4f91cf2e",
          "blockNumber": "0x152d04d",
          "blockTimestamp": "0x67f175db",
          "transactionHash": "0xc23825b1fd3399bac4f08b88e053a498285f848d48f5f395dcc936880620e151",
          "transactionIndex": "0x63",
          "logIndex": "0x110",
          "removed": false
        },
        {
          "address": "0xf31352ede0b4673e101d4e77de119ab7dd5a7251",
          "topics": [
            "0xe3f27c5c6040730dd8dabe075a5ed5da28906cf33fefe23f89968529d505d268",
            "0x27628d2cc423db4ee2b8b7473fc31827648331e23052a30408b59549401c147d",
            "0x000000000000000000000000dac17f958d2ee523a2206206994597c13d831ec7"
          ],
          "data": "0x0000000000000000000000000000000000000000000000000000000000000014",
          "blockHash": "0x2249cb001ee7deee07e6c78dc8e6e553503c89a36300ae3347acc95f4f91cf2e",
          "blockNumber": "0x152d04d",
          "blockTimestamp": "0x67f175db",
          "transactionHash": "0xc23825b1fd3399bac4f08b88e053a498285f848d48f5f395dcc936880620e151",
          "transactionIndex": "0x63",
          "logIndex": "0x111",
          "removed": false
        },
        {
          "address": "0xf31352ede0b4673e101d4e77de119ab7dd5a7251",
          "topics": [
            "0xe3f27c5c6040730dd8dabe075a5ed5da28906cf33fefe23f89968529d505d268",
            "0x04ae3225c5511b44b77a2e7eb62f74d22cec91043f8498b7ded29d620d455d92",
            "0x000000000000000000000000bc4ca0eda7647a8ab7c2061c2e118a18a936f13d"
          ],
          "data": "0x00000000000000000000000000000000000000000000000000000000000002d1",
          "blockHash": "0x2249cb001ee7deee07e6c78dc8e6e553503c89a36300ae3347acc95f4f91cf2e",
          "blockNumber": "0x152d04d",
          "blockTimestamp": "0x67f175db",
          "transactionHash": "0xc23825b1fd3399bac4f08b88e053a498285f848d48f5f395dcc936880620e151",
          "transactionIndex": "0x63",
          "logIndex": "0x112",
          "removed": false
        },
        {
          "address": "0xf31352ede0b4673e101d4e77de119ab7dd5a7251",
          "topics": [
            "0xe3f27c5c6040730dd8dabe075a5ed5da28906cf33fefe23f89968529d505d268",
            "0x05f6f1fac3f1e8c3bf7dc5112fa2beb88beb94e4a7c5f98a60ed427b2251e9cf",
            "0x000000000000000000000000c18360217d8f7ab5e7c516566761ea12ce7f9d72"
          ],
          "data": "0x0000000000000000000000000000000000000000000000000000000000000014",
          "blockHash": "0x2249cb001ee7deee07e6c78dc8e6e553503c89a36300ae3347acc95f4f91cf2e",
          "blockNumber": "0x152d04d",
          "blockTimestamp": "0x67f175db",
          "transactionHash": "0xc23825b1fd3399bac4f08b88e053a498285f848d48f5f395dcc936880620e151",
          "transactionIndex": "0x63",
          "logIndex": "0x113",
          "removed": false
        },
        {
          "address": "0xf31352ede0b4673e101d4e77de119ab7dd5a7251",
          "topics": [
            "0xe3f27c5c6040730dd8dabe075a5ed5da28906cf33fefe23f89968529d505d268",
            "0x9242b96afe26a80c3dbafc207229df0646babd919ba3adb54427b970468ac6de",
            "0x000000000000000000000000ae7ab96520de3a18e5e111b5eaab095312d7fe84"
          ],
          "data": "0x0000000000000000000000000000000000000000000000000000000000000014",
          "blockHash": "0x2249cb001ee7deee07e6c78dc8e6e553503c89a36300ae3347acc95f4f91cf2e",
          "blockNumber": "0x152d04d",
          "blockTimestamp": "0x67f175db",
          "transactionHash": "0xc23825b1fd3399bac4f08b88e053a498285f848d48f5f395dcc936880620e151",
          "transactionIndex": "0x63",
          "logIndex": "0x114",
          "removed": false
        },
        {
          "address": "0xf31352ede0b4673e101d4e77de119ab7dd5a7251",
          "topics": [
            "0xe3f27c5c6040730dd8dabe075a5ed5da28906cf33fefe23f89968529d505d268",
            "0x2c0fc2b92f487f52921d70e788bfaa819133965a4a1b2719b63345de86e022b4",
            "0x000000000000000000000000cbb7c0000ab88b473b1f5afd9ef808440eed33bf"
          ],
          "data": "0x0000000000000000000000000000000000000000000000000000000000000014",
          "blockHash": "0x2249cb001ee7deee07e6c78dc8e6e553503c89a36300ae3347acc95f4f91cf2e",
          "blockNumber": "0x152d04d",
          "blockTimestamp": "0x67f175db",
          "transactionHash": "0xc23825b1fd3399bac4f08b88e053a498285f848d48f5f395dcc936880620e151",
          "transactionIndex": "0x63",
          "logIndex": "0x115",
          "removed": false
        },
        {
          "address": "0xf31352ede0b4673e101d4e77de119ab7dd5a7251",
          "topics": [
            "0xe3f27c5c6040730dd8dabe075a5ed5da28906cf33fefe23f89968529d505d268",
            "0x4daabf3a690d793bf48de3b6d490861731a36de5dd67a6bb7bba03f788c231c4",
            "0x0000000000000000000000002260fac5e5542a773aa44fbcfedf7c193bc2c599"
          ],
          "data": "0x0000000000000000000000000000000000000000000000000000000000000014",
          "blockHash": "0x2249cb001ee7deee07e6c78dc8e6e553503c89a36300ae3347acc95f4f91cf2e",
          "blockNumber": "0x152d04d",
          "blockTimestamp": "0x67f175db",
          "transactionHash": "0xc23825b1fd3399bac4f08b88e053a498285f848d48f5f395dcc936880620e151",
          "transactionIndex": "0x63",
          "logIndex": "0x116",
          "removed": false
        },
        {
          "address": "0xf31352ede0b4673e101d4e77de119ab7dd5a7251",
          "topics": [
            "0xe3f27c5c6040730dd8dabe075a5ed5da28906cf33fefe23f89968529d505d268",
            "0x8985622c8b33eb5d9497f73887f0289f8456deca9136e8a1c03a57279f536379",
            "0x000000000000000000000000514910771af9ca656af840dff83e8264ecf986ca"
          ],
          "data": "0x0000000000000000000000000000000000000000000000000000000000000014",
          "blockHash": "0x2249cb001ee7deee07e6c78dc8e6e553503c89a36300ae3347acc95f4f91cf2e",
          "blockNumber": "0x152d04d",
          "blockTimestamp": "0x67f175db",
          "transactionHash": "0xc23825b1fd3399bac4f08b88e053a498285f848d48f5f395dcc936880620e151",
          "transactionIndex": "0x63",
          "logIndex": "0x117",
          "removed": false
        },
        {
          "address": "0xf31352ede0b4673e101d4e77de119ab7dd5a7251",
          "topics": [
            "0xe3f27c5c6040730dd8dabe075a5ed5da28906cf33fefe23f89968529d505d268",
            "0xc012d2bb9400df6cbccb6401124bd1ea2da85c14308515ee9f6066ce518c64ed",
            "0x0000000000000000000000007fc66500c84a76ad7e9c93437bfc5ac33e2ddae9"
          ],
          "data": "0x0000000000000000000000000000000000000000000000000000000000000014",
          "blockHash": "0x2249cb001ee7deee07e6c78dc8e6e553503c89a36300ae3347acc95f4f91cf2e",
          "blockNumber": "0x152d04d",
          "blockTimestamp": "0x67f175db",
          "transactionHash": "0xc23825b1fd3399bac4f08b88e053a498285f848d48f5f395dcc936880620e151",
          "transactionIndex": "0x63",
          "logIndex": "0x118",
          "removed": false
        },
        {
          "address": "0xf31352ede0b4673e101d4e77de119ab7dd5a7251",
          "topics": [
            "0xe3f27c5c6040730dd8dabe075a5ed5da28906cf33fefe23f89968529d505d268",
            "0x20bbe91be06145fe5fb154212cc321988079642a981e24908d49d29af2210c4b",
            "0x0000000000000000000000001f9840a85d5af5bf1d1762f925bdaddc4201f984"
          ],
          "data": "0x0000000000000000000000000000000000000000000000000000000000000014",
          "blockHash": "0x2249cb001ee7deee07e6c78dc8e6e553503c89a36300ae3347acc95f4f91cf2e",
          "blockNumber": "0x152d04d",
          "blockTimestamp": "0x67f175db",
          "transactionHash": "0xc23825b1fd3399bac4f08b88e053a498285f848d48f5f395dcc936880620e151",
          "transactionIndex": "0x63",
          "logIndex": "0x119",
          "removed": false
        },
        {
          "address": "0xf31352ede0b4673e101d4e77de119ab7dd5a7251",
          "topics": [
            "0xe3f27c5c6040730dd8dabe075a5ed5da28906cf33fefe23f89968529d505d268",
            "0xcc6741a2026df5bbfffa99eefc9ae0173aa40a3605460d71a524b824eb960014",
            "0x00000000000000000000000095ad61b0a150d79219dcf64e1e6cc01f0b64c4ce"
          ],
          "data": "0x0000000000000000000000000000000000000000000000000000000000000014",
          "blockHash": "0x2249cb001ee7deee07e6c78dc8e6e553503c89a36300ae3347acc95f4f91cf2e",
          "blockNumber": "0x152d04d",
          "blockTimestamp": "0x67f175db",
          "transactionHash": "0xc23825b1fd3399bac4f08b88e053a498285f848d48f5f395dcc936880620e151",
          "transactionIndex": "0x63",
          "logIndex": "0x11a",
          "removed": false
        },
        {
          "address": "0xf31352ede0b4673e101d4e77de119ab7dd5a7251",
          "topics": [
            "0xe3f27c5c6040730dd8dabe075a5ed5da28906cf33fefe23f89968529d505d268",
            "0xd0afc5d86eb88825cad6cc0d2e0331fc006022568f8d82134ff26336c23040d7",
            "0x0000000000000000000000007d1afa7b718fb893db30a3abc0cfc608aacfebb0"
          ],
          "data": "0x0000000000000000000000000000000000000000000000000000000000000014",
          "blockHash": "0x2249cb001ee7deee07e6c78dc8e6e553503c89a36300ae3347acc95f4f91cf2e",
          "blockNumber": "0x152d04d",
          "blockTimestamp": "0x67f175db",
          "transactionHash": "0xc23825b1fd3399bac4f08b88e053a498285f848d48f5f395dcc936880620e151",
          "transactionIndex": "0x63",
          "logIndex": "0x11b",
          "removed": false
        },
        {
          "address": "0xf31352ede0b4673e101d4e77de119ab7dd5a7251",
          "topics": [
            "0xe3f27c5c6040730dd8dabe075a5ed5da28906cf33fefe23f89968529d505d268",
            "0xd76817760f911deaf7eebc7700bb74d597843ef11fcc0342f3112a03f6f557ad",
            "0x000000000000000000000000c00e94cb662c3520282e6f5717214004a7f26888"
          ],
          "data": "0x0000000000000000000000000000000000000000000000000000000000000014",
          "blockHash": "0x2249cb001ee7deee07e6c78dc8e6e553503c89a36300ae3347acc95f4f91cf2e",
          "blockNumber": "0x152d04d",
          "blockTimestamp": "0x67f175db",
          "transactionHash": "0xc23825b1fd3399bac4f08b88e053a498285f848d48f5f395dcc936880620e151",
          "transactionIndex": "0x63",
          "logIndex": "0x11c",
          "removed": false
        },
        {
          "address": "0xf31352ede0b4673e101d4e77de119ab7dd5a7251",
          "topics": [
            "0xe3f27c5c6040730dd8dabe075a5ed5da28906cf33fefe23f89968529d505d268",
            "0x323e1f9909a5032540c399d84133019979897a2152d6e2317683e177396d111c",
            "0x000000000000000000000000111111111117dc0aa78b770fa6a738034120c302"
          ],
          "data": "0x0000000000000000000000000000000000000000000000000000000000000014",
          "blockHash": "0x2249cb001ee7deee07e6c78dc8e6e553503c89a36300ae3347acc95f4f91cf2e",
          "blockNumber": "0x152d04d",
          "blockTimestamp": "0x67f175db",
          "transactionHash": "0xc23825b1fd3399bac4f08b88e053a498285f848d48f5f395dcc936880620e151",
          "transactionIndex": "0x63",
          "logIndex": "0x11d",
          "removed": false
        },
        {
          "address": "0xf31352ede0b4673e101d4e77de119ab7dd5a7251",
          "topics": [
            "0xe3f27c5c6040730dd8dabe075a5ed5da28906cf33fefe23f89968529d505d268",
            "0x1a573333d8e734341c16ef7d4fd4501274d863b2f4b56aedebe065dfdd4bfa9e",
            "0x000000000000000000000000c944e90c64b2c07662a292be6244bdf05cda44a7"
          ],
          "data": "0x0000000000000000000000000000000000000000000000000000000000000014",
          "blockHash": "0x2249cb001ee7deee07e6c78dc8e6e553503c89a36300ae3347acc95f4f91cf2e",
          "blockNumber": "0x152d04d",
          "blockTimestamp": "0x67f175db",
          "transactionHash": "0xc23825b1fd3399bac4f08b88e053a498285f848d48f5f395dcc936880620e151",
          "transactionIndex": "0x63",
          "logIndex": "0x11e",
          "removed": false
        },
        {
          "address": "0xf31352ede0b4673e101d4e77de119ab7dd5a7251",
          "topics": [
            "0xe3f27c5c6040730dd8dabe075a5ed5da28906cf33fefe23f89968529d505d268",
            "0x9604822bb8839aae0159e9094512fc4ad6b22351ead2422e04e26170395caec9",
            "0x0000000000000000000000000d8775f648430679a709e98d2b0cb6250d2887ef"
          ],
          "data": "0x0000000000000000000000000000000000000000000000000000000000000014",
          "blockHash": "0x2249cb001ee7deee07e6c78dc8e6e553503c89a36300ae3347acc95f4f91cf2e",
          "blockNumber": "0x152d04d",
          "blockTimestamp": "0x67f175db",
          "transactionHash": "0xc23825b1fd3399bac4f08b88e053a498285f848d48f5f395dcc936880620e151",
          "transactionIndex": "0x63",
          "logIndex": "0x11f",
          "removed": false
        },
        {
          "address": "0xf31352ede0b4673e101d4e77de119ab7dd5a7251",
          "topics": [
            "0xe3f27c5c6040730dd8dabe075a5ed5da28906cf33fefe23f89968529d505d268",
            "0x5107ad803de32904005d0e7ce939da32e7ffb4de539cbfc651d89f5bab30e0e4",
            "0x0000000000000000000000005a98fcbea516cf06857215779fd812ca3bef1b32"
          ],
          "data": "0x0000000000000000000000000000000000000000000000000000000000000014",
          "blockHash": "0x2249cb001ee7deee07e6c78dc8e6e553503c89a36300ae3347acc95f4f91cf2e",
          "blockNumber": "0x152d04d",
          "blockTimestamp": "0x67f175db",
          "transactionHash": "0xc23825b1fd3399bac4f08b88e053a498285f848d48f5f395dcc936880620e151",
          "transactionIndex": "0x63",
          "logIndex": "0x120",
          "removed": false
        }
      ],
      "logsBloom": "0x10000000200000040000000020000000004008120000000000000000005000008000004400100000050c02200001000000000000000000000000082000000000200008000000000120008a100000009000000208000800120000008000040040000000004000000001006000200040412200002004200000000004010000002000000420800000000000004000000882000000000800c400000002040000001101000026000000000000020080000000040001800010000000000000000100608000c0000800800300014000000800400000080a1004808010000000080000040000080000000200000000000000000084802000000002102000000008208000",
      "type": "0x2",
      "transactionHash": "0xc23825b1fd3399bac4f08b88e053a498285f848d48f5f395dcc936880620e151",
      "transactionIndex": "0x63",
      "blockHash": "0x2249cb001ee7deee07e6c78dc8e6e553503c89a36300ae3347acc95f4f91cf2e",
      "blockNumber": "0x152d04d",
      "gasUsed": "0x9fc0d",
      "effectiveGasPrice": "0x19e3c14d",
      "from": "0x9906b794407bbe3c1ca9741fdb30dc2facc838de",
      "to": "0xf31352ede0b4673e101d4e77de119ab7dd5a7251",
      "contractAddress": null
    }
  ],
  "libraries": [],
  "pending": [],
  "returns": {},
  "timestamp": 1743877598,
  "chain": 1,
  "commit": "124c653"
}