{
  "transactions": [
    {
      "hash": "0xf13fa8886579bfbcb083105b097ef666495f2b7bc1d0e5f1bd177148726ef34c",
      "transactionType": "CALL",
      "contractName": "Resolver",
      "contractAddress": "0xf31352ede0b4673e101d4e77de119ab7dd5a7251",
      "function": "setTickerBatch(address[],bytes32[])",
      "arguments": [
        "[0x6B175474E89094C44Da98b954EedeAC495271d0F, 0xC02aaA39b223FE8D0A0e5C4F27eAD9083C756Cc2, 0xA0b86991c6218b36c1d19D4a2e9Eb0cE3606eB48, 0xdAC17F958D2ee523a2206206994597C13D831ec7, 0xBC4CA0EdA7647A8aB7C2061c2E118A18a936f13D, 0xC18360217D8F7Ab5e7c516566761Ea12Ce7F9D72, 0xae7ab96520DE3A18E5e111B5EaAb095312D7fE84, 0xcbB7C0000aB88B473b1f5aFd9ef808440eed33Bf, 0x2260FAC5E5542a773Aa44fBCfeDf7C193bc2C599, 0x514910771AF9Ca656af840dff83E8264EcF986CA, 0x7Fc66500c84A76Ad7e9c93437bFc5Ac33E2DDaE9, 0x1f9840a85d5aF5bf1D1762F925BDADdC4201F984, 0x95aD61b0a150d79219dCF64E1E6Cc01f0B64C4cE, 0x7D1AfA7B718fb893dB30A3aBc0Cfc608AaCfeBB0, 0xc00e94Cb662C3520282E6f5717214004A7f26888, 0x111111111117dC0aa78b770fA6A738034120C302, 0xc944E90C64B2c07662A292be6244BDf05Cda44a7, 0x0D8775F648430679A709E98d2b0Cb6250d2887EF, 0x5A98FcBEA516Cf06857215779Fd812CA3beF1B32]",
        "[0x085f7bd8c460f5a4444a845d4649fd62608f746d1f6e3ac4407aa6a94c6c6e25, 0xd88805cfe3cefab82ef08a8f7bb941fa708d25b6856bcac3d097c32f11ffc889, 0xbddef8cc5940ff8b8690a7afb89a4857778d0476639fa2fbc863612b11ca3080, 0x27628d2cc423db4ee2b8b7473fc31827648331e23052a30408b59549401c147d, 0x04ae3225c5511b44b77a2e7eb62f74d22cec91043f8498b7ded29d620d455d92, 0x05f6f1fac3f1e8c3bf7dc5112fa2beb88beb94e4a7c5f98a60ed427b2251e9cf, 0x9242b96afe26a80c3dbafc207229df0646babd919ba3adb54427b970468ac6de, 0x2c0fc2b92f487f52921d70e788bfaa819133965a4a1b2719b63345de86e022b4, 0x4daabf3a690d793bf48de3b6d490861731a36de5dd67a6bb7bba03f788c231c4, 0x8985622c8b33eb5d9497f73887f0289f8456deca9136e8a1c03a57279f536379, 0xc012d2bb9400df6cbccb6401124bd1ea2da85c14308515ee9f6066ce518c64ed, 0x20bbe91be06145fe5fb154212cc321988079642a981e24908d49d29af2210c4b, 0xcc6741a2026df5bbfffa99eefc9ae0173aa40a3605460d71a524b824eb960014, 0xd0afc5d86eb88825cad6cc0d2e0331fc006022568f8d82134ff26336c23040d7, 0xd76817760f911deaf7eebc7700bb74d597843ef11fcc0342f3112a03f6f557ad, 0x323e1f9909a5032540c399d84133019979897a2152d6e2317683e177396d111c, 0x1a573333d8e734341c16ef7d4fd4501274d863b2f4b56aedebe065dfdd4bfa9e, 0x9604822bb8839aae0159e9094512fc4ad6b22351ead2422e04e26170395caec9, 0x5107ad803de32904005d0e7ce939da32e7ffb4de539cbfc651d89f5bab30e0e4]"
      ],
      "transaction": {
        "from": "0x9906b794407bbe3c1ca9741fdb30dc2facc838de",
        "to": "0xf31352ede0b4673e101d4e77de119ab7dd5a7251",
        "gas": "0xe9a27",
        "value": "0x0",
        "input": "0x11982e49000000000000000000000000000000000000000000000000000000000000004000000000000000000000000000000000000000000000000000000000000002c000000000000000000000000000000000000000000000000000000000000000130000000000000000000000006b175474e89094c44da98b954eedeac495271d0f000000000000000000000000c02aaa39b223fe8d0a0e5c4f27ead9083c756cc2000000000000000000000000a0b86991c6218b36c1d19d4a2e9eb0ce3606eb48000000000000000000000000dac17f958d2ee523a2206206994597c13d831ec7000000000000000000000000bc4ca0eda7647a8ab7c2061c2e118a18a936f13d000000000000000000000000c18360217d8f7ab5e7c516566761ea12ce7f9d72000000000000000000000000ae7ab96520de3a18e5e111b5eaab095312d7fe84000000000000000000000000cbb7c0000ab88b473b1f5afd9ef808440eed33bf0000000000000000000000002260fac5e5542a773aa44fbcfedf7c193bc2c599000000000000000000000000514910771af9ca656af840dff83e8264ecf986ca0000000000000000000000007fc66500c84a76ad7e9c93437bfc5ac33e2ddae90000000000000000000000001f9840a85d5af5bf1d1762f925bdaddc4201f98400000000000000000000000095ad61b0a150d79219dcf64e1e6cc01f0b64c4ce0000000000000000000000007d1afa7b718fb893db30a3abc0cfc608aacfebb0000000000000000000000000c00e94cb662c3520282e6f5717214004a7f26888000000000000000000000000111111111117dc0aa78b770fa6a738034120c302000000000000000000000000c944e90c64b2c07662a292be6244bdf05cda44a70000000000000000000000000d8775f648430679a709e98d2b0cb6250d2887ef0000000000000000000000005a98fcbea516cf06857215779fd812ca3bef1b320000000000000000000000000000000000000000000000000000000000000013085f7bd8c460f5a4444a845d4649fd62608f746d1f6e3ac4407aa6a94c6c6e25d88805cfe3cefab82ef08a8f7bb941fa708d25b6856bcac3d097c32f11ffc889bddef8cc5940ff8b8690a7afb89a4857778d0476639fa2fbc863612b11ca308027628d2cc423db4ee2b8b7473fc31827648331e23052a30408b59549401c147d04ae3225c5511b44b77a2e7eb62f74d22cec91043f8498b7ded29d620d455d9205f6f1fac3f1e8c3bf7dc5112fa2beb88beb94e4a7c5f98a60ed427b2251e9cf9242b96afe26a80c3dbafc207229df0646babd919ba3adb54427b970468ac6de2c0fc2b92f487f52921d70e788bfaa819133965a4a1b2719b63345de86e022b44daabf3a690d793bf48de3b6d490861731a36de5dd67a6bb7bba03f788c231c48985622c8b33eb5d9497f73887f0289f8456deca9136e8a1c03a57279f536379c012d2bb9400df6cbccb6401124bd1ea2da85c14308515ee9f6066ce518c64ed20bbe91be06145fe5fb154212cc321988079642a981e24908d49d29af2210c4bcc6741a2026df5bbfffa99eefc9ae0173aa40a3605460d71a524b824eb960014d0afc5d86eb88825cad6cc0d2e0331fc006022568f8d82134ff26336c23040d7d76817760f911deaf7eebc7700bb74d597843ef11fcc0342f3112a03f6f557ad323e1f9909a5032540c399d84133019979897a2152d6e2317683e177396d111c1a573333d8e734341c16ef7d4fd4501274d863b2f4b56aedebe065dfdd4bfa9e9604822bb8839aae0159e9094512fc4ad6b22351ead2422e04e26170395caec95107ad803de32904005d0e7ce939da32e7ffb4de539cbfc651d89f5bab30e0e4",
        "nonce": "0x9",
        "chainId": "0x1"
      },
      "additionalContracts": [],
      "isFixedGasLimit": false
    }
  ],
  "receipts": [
    {
      "status": "0x1",
      "cumulativeGasUsed": "0xbd51e0",
      "logs": [
        {
          "address": "0xf31352ede0b4673e101d4e77de119ab7dd5a7251",
          "topics": [
            "0xe3f27c5c6040730dd8dabe075a5ed5da28906cf33fefe23f89968529d505d268",
            "0x3db0bc5d03b2280cfebfe39514c4f1e9d3b5e06b69b9a48ad06adf68760d97d4",
            "0x0000000000000000000000006b175474e89094c44da98b954eedeac495271d0f"
          ],
          "data": "0x0000000000000000000000000000000000000000000000000000000000000014",
          "blockHash": "0x855e5c078852aa01018348a081d8ab856c7fd3f90f9a35deb3141da5de0998be",
          "blockNumber": "0x152d002",
          "blockTimestamp": "0x67f1723f",
          "transactionHash": "0xf13fa8886579bfbcb083105b097ef666495f2b7bc1d0e5f1bd177148726ef34c",
          "transactionIndex": "0x8e",
          "logIndex": "0x10f",
          "removed": false
        },
        {
          "address": "0xf31352ede0b4673e101d4e77de119ab7dd5a7251",
          "topics": [
            "0xe3f27c5c6040730dd8dabe075a5ed5da28906cf33fefe23f89968529d505d268",
            "0x9cc687a52311c7434923b7bea9f18ef600637a9c534d348cdaaf4b03f3c80d12",
            "0x000000000000000000000000c02aaa39b223fe8d0a0e5c4f27ead9083c756cc2"
          ],
          "data": "0x0000000000000000000000000000000000000000000000000000000000000014",
          "blockHash": "0x855e5c078852aa01018348a081d8ab856c7fd3f90f9a35deb3141da5de0998be",
          "blockNumber": "0x152d002",
          "blockTimestamp": "0x67f1723f",
          "transactionHash": "0xf13fa8886579bfbcb083105b097ef666495f2b7bc1d0e5f1bd177148726ef34c",
          "transactionIndex": "0x8e",
          "logIndex": "0x110",
          "removed": false
        },
        {
          "address": "0xf31352ede0b4673e101d4e77de119ab7dd5a7251",
          "topics": [
            "0xe3f27c5c6040730dd8dabe075a5ed5da28906cf33fefe23f89968529d505d268",
            "0x4e1641020f3b1cefe6064e6be6bedf24b881dd181f8dcf78166cc46ad87d81ac",
            "0x000000000000000000000000a0b86991c6218b36c1d19d4a2e9eb0ce3606eb48"
          ],
          "data": "0x0000000000000000000000000000000000000000000000000000000000000014",
          "blockHash": "0x855e5c078852aa01018348a081d8ab856c7fd3f90f9a35deb3141da5de0998be",
          "blockNumber": "0x152d002",
          "blockTimestamp": "0x67f1723f",
          "transactionHash": "0xf13fa8886579bfbcb083105b097ef666495f2b7bc1d0e5f1bd177148726ef34c",
          "transactionIndex": "0x8e",
          "logIndex": "0x111",
          "removed": false
        },
        {
          "address": "0xf31352ede0b4673e101d4e77de119ab7dd5a7251",
          "topics": [
            "0xe3f27c5c6040730dd8dabe075a5ed5da28906cf33fefe23f89968529d505d268",
            "0xc2af36408a8c76fa012fc3c4c27f6853a406615cfb435d537df41ec711a3506e",
            "0x000000000000000000000000dac17f958d2ee523a2206206994597c13d831ec7"
          ],
          "data": "0x0000000000000000000000000000000000000000000000000000000000000014",
          "blockHash": "0x855e5c078852aa01018348a081d8ab856c7fd3f90f9a35deb3141da5de0998be",
          "blockNumber": "0x152d002",
          "blockTimestamp": "0x67f1723f",
          "transactionHash": "0xf13fa8886579bfbcb083105b097ef666495f2b7bc1d0e5f1bd177148726ef34c",
          "transactionIndex": "0x8e",
          "logIndex": "0x112",
          "removed": false
        },
        {
          "address": "0xf31352ede0b4673e101d4e77de119ab7dd5a7251",
          "topics": [
            "0xe3f27c5c6040730dd8dabe075a5ed5da28906cf33fefe23f89968529d505d268",
            "0x19c37d2d45f4476e2374cc3d737e90e147bc12210362aec0eb8d099a128b5489",
            "0x000000000000000000000000bc4ca0eda7647a8ab7c2061c2e118a18a936f13d"
          ],
          "data": "0x00000000000000000000000000000000000000000000000000000000000002d1",
          "blockHash": "0x855e5c078852aa01018348a081d8ab856c7fd3f90f9a35deb3141da5de0998be",
          "blockNumber": "0x152d002",
          "blockTimestamp": "0x67f1723f",
          "transactionHash": "0xf13fa8886579bfbcb083105b097ef666495f2b7bc1d0e5f1bd177148726ef34c",
          "transactionIndex": "0x8e",
          "logIndex": "0x113",
          "removed": false
        },
        {
          "address": "0xf31352ede0b4673e101d4e77de119ab7dd5a7251",
          "topics": [
            "0xe3f27c5c6040730dd8dabe075a5ed5da28906cf33fefe23f89968529d505d268",
            "0x208f858a4937a0e1ab93bfa398ea7c77a9c82e068fceac0c18876decd16dd5aa",
            "0x000000000000000000000000c18360217d8f7ab5e7c516566761ea12ce7f9d72"
          ],
          "data": "0x0000000000000000000000000000000000000000000000000000000000000014",
          "blockHash": "0x855e5c078852aa01018348a081d8ab856c7fd3f90f9a35deb3141da5de0998be",
          "blockNumber": "0x152d002",
          "blockTimestamp": "0x67f1723f",
          "transactionHash": "0xf13fa8886579bfbcb083105b097ef666495f2b7bc1d0e5f1bd177148726ef34c",
          "transactionIndex": "0x8e",
          "logIndex": "0x114",
          "removed": false
        },
        {
          "address": "0xf31352ede0b4673e101d4e77de119ab7dd5a7251",
          "topics": [
            "0xe3f27c5c6040730dd8dabe075a5ed5da28906cf33fefe23f89968529d505d268",
            "0x5b4ebd914d78ed6d88d0a8cef3eb4c93e4e543e9a547223934a17ca510cef3af",
            "0x000000000000000000000000ae7ab96520de3a18e5e111b5eaab095312d7fe84"
          ],
          "data": "0x0000000000000000000000000000000000000000000000000000000000000014",
          "blockHash": "0x855e5c078852aa01018348a081d8ab856c7fd3f90f9a35deb3141da5de0998be",
          "blockNumber": "0x152d002",
          "blockTimestamp": "0x67f1723f",
          "transactionHash": "0xf13fa8886579bfbcb083105b097ef666495f2b7bc1d0e5f1bd177148726ef34c",
          "transactionIndex": "0x8e",
          "logIndex": "0x115",
          "removed": false
        },
        {
          "address": "0xf31352ede0b4673e101d4e77de119ab7dd5a7251",
          "topics": [
            "0xe3f27c5c6040730dd8dabe075a5ed5da28906cf33fefe23f89968529d505d268",
            "0x2ecb04b65f04aaa179af471a44a57db913cd53c6cd2082c6ecc23f60d1cbc45b",
            "0x000000000000000000000000cbb7c0000ab88b473b1f5afd9ef808440eed33bf"
          ],
          "data": "0x0000000000000000000000000000000000000000000000000000000000000014",
          "blockHash": "0x855e5c078852aa01018348a081d8ab856c7fd3f90f9a35deb3141da5de0998be",
          "blockNumber": "0x152d002",
          "blockTimestamp": "0x67f1723f",
          "transactionHash": "0xf13fa8886579bfbcb083105b097ef666495f2b7bc1d0e5f1bd177148726ef34c",
          "transactionIndex": "0x8e",
          "logIndex": "0x116",
          "removed": false
        },
        {
          "address": "0xf31352ede0b4673e101d4e77de119ab7dd5a7251",
          "topics": [
            "0xe3f27c5c6040730dd8dabe075a5ed5da28906cf33fefe23f89968529d505d268",
            "0x43a7344a411209f408bce323d6abf4808cda3c8b2dbc0e564828621ed4cf34be",
            "0x0000000000000000000000002260fac5e5542a773aa44fbcfedf7c193bc2c599"
          ],
          "data": "0x0000000000000000000000000000000000000000000000000000000000000014",
          "blockHash": "0x855e5c078852aa01018348a081d8ab856c7fd3f90f9a35deb3141da5de0998be",
          "blockNumber": "0x152d002",
          "blockTimestamp": "0x67f1723f",
          "transactionHash": "0xf13fa8886579bfbcb083105b097ef666495f2b7bc1d0e5f1bd177148726ef34c",
          "transactionIndex": "0x8e",
          "logIndex": "0x117",
          "removed": false
        },
        {
          "address": "0xf31352ede0b4673e101d4e77de119ab7dd5a7251",
          "topics": [
            "0xe3f27c5c6040730dd8dabe075a5ed5da28906cf33fefe23f89968529d505d268",
            "0x9a1c82b4408f7ad5d903adbf551e7c5c0731506cde66e336906ac33354cb6667",
            "0x000000000000000000000000514910771af9ca656af840dff83e8264ecf986ca"
          ],
          "data": "0x0000000000000000000000000000000000000000000000000000000000000014",
          "blockHash": "0x855e5c078852aa01018348a081d8ab856c7fd3f90f9a35deb3141da5de0998be",
          "blockNumber": "0x152d002",
          "blockTimestamp": "0x67f1723f",
          "transactionHash": "0xf13fa8886579bfbcb083105b097ef666495f2b7bc1d0e5f1bd177148726ef34c",
          "transactionIndex": "0x8e",
          "logIndex": "0x118",
          "removed": false
        },
        {
          "address": "0xf31352ede0b4673e101d4e77de119ab7dd5a7251",
          "topics": [
            "0xe3f27c5c6040730dd8dabe075a5ed5da28906cf33fefe23f89968529d505d268",
            "0x6ded3de4da530b5e22705672b7f201ab5b095ab418d52688c4f7ca3c615b84a4",
            "0x0000000000000000000000007fc66500c84a76ad7e9c93437bfc5ac33e2ddae9"
          ],
          "data": "0x0000000000000000000000000000000000000000000000000000000000000014",
          "blockHash": "0x855e5c078852aa01018348a081d8ab856c7fd3f90f9a35deb3141da5de0998be",
          "blockNumber": "0x152d002",
          "blockTimestamp": "0x67f1723f",
          "transactionHash": "0xf13fa8886579bfbcb083105b097ef666495f2b7bc1d0e5f1bd177148726ef34c",
          "transactionIndex": "0x8e",
          "logIndex": "0x119",
          "removed": false
        },
        {
          "address": "0xf31352ede0b4673e101d4e77de119ab7dd5a7251",
          "topics": [
            "0xe3f27c5c6040730dd8dabe075a5ed5da28906cf33fefe23f89968529d505d268",
            "0x5971668a7428479bbfc335fb66de5ade8682009bbabf0789fa0de675a92aa570",
            "0x0000000000000000000000001f9840a85d5af5bf1d1762f925bdaddc4201f984"
          ],
          "data": "0x0000000000000000000000000000000000000000000000000000000000000014",
          "blockHash": "0x855e5c078852aa01018348a081d8ab856c7fd3f90f9a35deb3141da5de0998be",
          "blockNumber": "0x152d002",
          "blockTimestamp": "0x67f1723f",
          "transactionHash": "0xf13fa8886579bfbcb083105b097ef666495f2b7bc1d0e5f1bd177148726ef34c",
          "transactionIndex": "0x8e",
          "logIndex": "0x11a",
          "removed": false
        },
        {
          "address": "0xf31352ede0b4673e101d4e77de119ab7dd5a7251",
          "topics": [
            "0xe3f27c5c6040730dd8dabe075a5ed5da28906cf33fefe23f89968529d505d268",
            "0x3e1186251171c6f5a7b18646e24e295d6f16a7d57609a56a55262e23264c038c",
            "0x00000000000000000000000095ad61b0a150d79219dcf64e1e6cc01f0b64c4ce"
          ],
          "data": "0x0000000000000000000000000000000000000000000000000000000000000014",
          "blockHash": "0x855e5c078852aa01018348a081d8ab856c7fd3f90f9a35deb3141da5de0998be",
          "blockNumber": "0x152d002",
          "blockTimestamp": "0x67f1723f",
          "transactionHash": "0xf13fa8886579bfbcb083105b097ef666495f2b7bc1d0e5f1bd177148726ef34c",
          "transactionIndex": "0x8e",
          "logIndex": "0x11b",
          "removed": false
        },
        {
          "address": "0xf31352ede0b4673e101d4e77de119ab7dd5a7251",
          "topics": [
            "0xe3f27c5c6040730dd8dabe075a5ed5da28906cf33fefe23f89968529d505d268",
            "0xb71c9c4a143677b99791ea0ce299093a0e7a5ee2d971c5dcbd60d4e926266d46",
            "0x0000000000000000000000007d1afa7b718fb893db30a3abc0cfc608aacfebb0"
          ],
          "data": "0x0000000000000000000000000000000000000000000000000000000000000014",
          "blockHash": "0x855e5c078852aa01018348a081d8ab856c7fd3f90f9a35deb3141da5de0998be",
          "blockNumber": "0x152d002",
          "blockTimestamp": "0x67f1723f",
          "transactionHash": "0xf13fa8886579bfbcb083105b097ef666495f2b7bc1d0e5f1bd177148726ef34c",
          "transactionIndex": "0x8e",
          "logIndex": "0x11c",
          "removed": false
        },
        {
          "address": "0xf31352ede0b4673e101d4e77de119ab7dd5a7251",
          "topics": [
            "0xe3f27c5c6040730dd8dabe075a5ed5da28906cf33fefe23f89968529d505d268",
            "0x07d3e082c0fe5b2714875beefd10e99000fe52ccf219c1e46c284d6e511d1119",
            "0x000000000000000000000000c00e94cb662c3520282e6f5717214004a7f26888"
          ],
          "data": "0x0000000000000000000000000000000000000000000000000000000000000014",
          "blockHash": "0x855e5c078852aa01018348a081d8ab856c7fd3f90f9a35deb3141da5de0998be",
          "blockNumber": "0x152d002",
          "blockTimestamp": "0x67f1723f",
          "transactionHash": "0xf13fa8886579bfbcb083105b097ef666495f2b7bc1d0e5f1bd177148726ef34c",
          "transactionIndex": "0x8e",
          "logIndex": "0x11d",
          "removed": false
        },
        {
          "address": "0xf31352ede0b4673e101d4e77de119ab7dd5a7251",
          "topics": [
            "0xe3f27c5c6040730dd8dabe075a5ed5da28906cf33fefe23f89968529d505d268",
            "0xba05fa3566c4815d682bf4c2cebb57f8e36a4fd92cb1dfa9577013704db2cf26",
            "0x000000000000000000000000111111111117dc0aa78b770fa6a738034120c302"
          ],
          "data": "0x0000000000000000000000000000000000000000000000000000000000000014",
          "blockHash": "0x855e5c078852aa01018348a081d8ab856c7fd3f90f9a35deb3141da5de0998be",
          "blockNumber": "0x152d002",
          "blockTimestamp": "0x67f1723f",
          "transactionHash": "0xf13fa8886579bfbcb083105b097ef666495f2b7bc1d0e5f1bd177148726ef34c",
          "transactionIndex": "0x8e",
          "logIndex": "0x11e",
          "removed": false
        },
        {
          "address": "0xf31352ede0b4673e101d4e77de119ab7dd5a7251",
          "topics": [
            "0xe3f27c5c6040730dd8dabe075a5ed5da28906cf33fefe23f89968529d505d268",
            "0x632420cd80340ac63b556e0d21ca5b0d1a446e7842fa07e15f58808192a469a7",
            "0x000000000000000000000000c944e90c64b2c07662a292be6244bdf05cda44a7"
          ],
          "data": "0x0000000000000000000000000000000000000000000000000000000000000014",
          "blockHash": "0x855e5c078852aa01018348a081d8ab856c7fd3f90f9a35deb3141da5de0998be",
          "blockNumber": "0x152d002",
          "blockTimestamp": "0x67f1723f",
          "transactionHash": "0xf13fa8886579bfbcb083105b097ef666495f2b7bc1d0e5f1bd177148726ef34c",
          "transactionIndex": "0x8e",
          "logIndex": "0x11f",
          "removed": false
        },
        {
          "address": "0xf31352ede0b4673e101d4e77de119ab7dd5a7251",
          "topics": [
            "0xe3f27c5c6040730dd8dabe075a5ed5da28906cf33fefe23f89968529d505d268",
            "0x4cb9599363a7cb0406e97b6dfb0dc111eb481a6d5f828b2b3a686a6b13f4067c",
            "0x0000000000000000000000000d8775f648430679a709e98d2b0cb6250d2887ef"
          ],
          "data": "0x0000000000000000000000000000000000000000000000000000000000000014",
          "blockHash": "0x855e5c078852aa01018348a081d8ab856c7fd3f90f9a35deb3141da5de0998be",
          "blockNumber": "0x152d002",
          "blockTimestamp": "0x67f1723f",
          "transactionHash": "0xf13fa8886579bfbcb083105b097ef666495f2b7bc1d0e5f1bd177148726ef34c",
          "transactionIndex": "0x8e",
          "logIndex": "0x120",
          "removed": false
        },
        {
          "address": "0xf31352ede0b4673e101d4e77de119ab7dd5a7251",
          "topics": [
            "0xe3f27c5c6040730dd8dabe075a5ed5da28906cf33fefe23f89968529d505d268",
            "0x50dc02aa6ca5ee32f8ed55de7a2b9d4170ac32d19720713abf24c2a59239d8fa",
            "0x0000000000000000000000005a98fcbea516cf06857215779fd812ca3bef1b32"
          ],
          "data": "0x0000000000000000000000000000000000000000000000000000000000000014",
          "blockHash": "0x855e5c078852aa01018348a081d8ab856c7fd3f90f9a35deb3141da5de0998be",
          "blockNumber": "0x152d002",
          "blockTimestamp": "0x67f1723f",
          "transactionHash": "0xf13fa8886579bfbcb083105b097ef666495f2b7bc1d0e5f1bd177148726ef34c",
          "transactionIndex": "0x8e",
          "logIndex": "0x121",
          "removed": false
        }
      ],
      "logsBloom": "0x50000001000000040020008020204000000000120000000000000000004000008000a004000400800508066000000000200000000000000000000802000000400000000880000000000008000024009000000208000800100000008000040000080040020000000000006000020000010010002014200a0000000000000000200000002080000000000000400000004201008000004004000010020400020401000400000000000000000100800000000500030000100010200001000005006000004000000080000000400000080000002200830004000010000000100000040010080002000200000000801000004084802000000080122000000008208000",
      "type": "0x2",
      "transactionHash": "0xf13fa8886579bfbcb083105b097ef666495f2b7bc1d0e5f1bd177148726ef34c",
      "transactionIndex": "0x8e",
      "blockHash": "0x855e5c078852aa01018348a081d8ab856c7fd3f90f9a35deb3141da5de0998be",
      "blockNumber": "0x152d002",
      "gasUsed": "0x9fc01",
      "effectiveGasPrice": "0x1e0062c9",
      "from": "0x9906b794407bbe3c1ca9741fdb30dc2facc838de",
      "to": "0xf31352ede0b4673e101d4e77de119ab7dd5a7251",
      "contractAddress": null
    }
  ],
  "libraries": [],
  "pending": [],
  "returns": {},
  "timestamp": 1743876673,
  "chain": 1,
  "commit": "124c653"
}